:100000000C945D000C9485000C9485000C94850084
:100010000C9485000C9485000C9485000C9485004C
:100020000C9485000C9485000C9485000C945A0265
:100030000C9485000C9485000C9485000C9485002C
:100040000C9490030C9485000C9456030C941B03A1
:100050000C9485000C9485000C9485000C9485000C
:100060000C9485000C9485000000000024002700FB
:100070002A0000000000250028002B0004040404CE
:100080000404040402020202020203030303030342
:10009000010204081020408001020408102001021F
:1000A00004081020000000070002010000030406FD
:1000B0000000000000000000DA0311241FBECFEF93
:1000C000D8E0DEBFCDBF11E0A0E0B1E0ECEDF1E1A2
:1000D00002C005900D92A032B107D9F722E0A0E24C
:1000E000B1E001C01D92A430B207E1F710E0CDE508
:1000F000D0E004C02197FE010E94E608CC35D1076C
:10010000C9F70E944B040C9474060C9400000895E7
:100110000F931F93CF93DF93FC01A685B7858D01C5
:10012000005C1F4FE8018881998101968F739927A0
:10013000AD014E5B5F4FEA012881398128173907ED
:10014000D1F3E80128813981A20FB31F6C93A685F2
:10015000B785A05CBF4F11969C938E93A689B789F3
:100160002C9181E090E0078C02C0880F991F0A94BF
:10017000E2F7822B8C9381E081A30488F589E02D3E
:1001800080818064808381E090E0DF91CF911F9136
:100190000F910895FC0181A1882329F0A489B589D4
:1001A0008C9186FFFBCF11A20895FC01A485B58533
:1001B000FD01E05CFF4F2081318132968081918189
:1001C0002817390779F080819181A80FB91F8C9188
:1001D000208131812F5F3F4F2F733327318320835D
:1001E00090E008958FEF9FEF0895DC011C96ED914C
:1001F000FC911D97DF01A05CBF4F2D913C911197A1
:1002000012968D919C9111972817390739F08D918D
:100210009C91E80FF91F808190E008958FEF9FEF88
:100220000895FC0124853585F901E05CFF4F80814C
:100230009181329620813181821B930B8F73992794
:10024000089586EB91E00C941101CF92DF92EF922A
:10025000FF920F931F93CF93DF936C01EB017B0110
:10026000E40EF51E00E010E0CE15DF0561F06991A7
:10027000D601ED91FC910190F081E02DC601099528
:10028000080F191FF1CFC801DF91CF911F910F9176
:10029000FF90EF90DF90CF90089590E0FC01EC5537
:1002A000FF4F2491FC01E057FF4F3491FC01E458CB
:1002B000FF4FE491EE2309F43CC0222339F12330AF
:1002C00091F038F42130A9F0223001F584B58F7D0A
:1002D00012C0263091F02730A1F02430B9F480917B
:1002E00080008F7D03C0809180008F778093800095
:1002F0000DC084B58F7784BD09C08091B0008F7721
:1003000003C08091B0008F7D8093B000F0E0EE0FCD
:10031000FF1FEE58FF4FA591B4919FB7F89461115C
:1003200004C08C913095382302C0EC913E2B3C9355
:100330009FBF0895CF93DF9390E0FC01E057FF4FFC
:100340002491FC01E458FF4F8491882361F190E0EF
:10035000880F991FFC01E859FF4FC591D491FC010A
:10036000EE58FF4FA591B491611109C09FB7F89461
:100370008881209582238883EC912E230BC06230E4
:1003800061F49FB7F8948881322F30958323888356
:10039000EC912E2B2C939FBF06C08FB7F894E88169
:1003A0002E2B28838FBFDF91CF9108953FB7F8940C
:1003B0008091210190912201A0912301B09124010B
:1003C00026B5A89B05C02F3F19F00196A11DB11DB0
:1003D0003FBFBA2FA92F982F8827820F911DA11DEB
:1003E000B11DBC01CD0142E0660F771F881F991F28
:1003F0004A95D1F70895CF92DF92EF92FF92CF9373
:10040000DF936B017C010E94D601EB01C114D10482
:10041000E104F10479F00E94D6016C1B7D0B683E6B
:100420007340A0F381E0C81AD108E108F108C8516F
:10043000DC4FECCFDF91CF91FF90EF90DF90CF902A
:100440000895CF93DF93EC0188819981009711F093
:100450000E944407198218821D821C821B821A8204
:10046000DF91CF9108950F931F93CF93DF93EC010A
:1004700088819981009729F02A813B8126173707C7
:1004800088F48B016F5F7F4F0E94CD07009761F06A
:10049000998388831B830A832C813D81232B11F44C
:1004A000FC01108281E001C080E0DF91CF911F91BB
:1004B0000F9108951F920F920FB60F9211242F9350
:1004C0003F934F935F936F937F938F939F93AF93DC
:1004D000BF93EF93FF9380912D0187FF05C010928A
:1004E0008500109284001BC020912D01022E000C6B
:1004F000330B8091FC0190E02817390784F4809138
:100500002D01082E000C990BFC01EE0FFF1F8E0F22
:100510009F1FFC01E852FE4F808186FD15C080912F
:100520002D018F5F80932D0120912D01022E000C53
:10053000330B8091FC0190E028173907C4F48091B7
:100540002D018C3064F113C080912D01082E000C18
:10055000990BFC01EE0FFF1F8E0F9F1FFC01E8524D
:10056000FE4F808160E08F730E944D01D8CF809153
:10057000840090918500049680349C4918F480E4AE
:100580009CE905C080918400909185000496909329
:100590008900809388008FEF80932D013BC02091CC
:1005A00084003091850080912D01082E000C990B5C
:1005B000FC01EE0FFF1F8E0F9F1FFC01E852FE4F44
:1005C00081819281820F931F90938900809388008C
:1005D00080912D01082E000C990BFC01EE0FFF1FDE
:1005E0008E0F9F1FFC01E852FE4F808186FF12C0D4
:1005F00080912D01082E000C990BFC01EE0FFF1FBE
:100600008E0F9F1FFC01E852FE4F808161E08F73C7
:100610000E944D01FF91EF91BF91AF919F918F91FA
:100620007F916F915F914F913F912F910F900FBEEE
:100630000F901F9018951F920F920FB60F921124D2
:100640002F933F938F939F93EF93FF9320916E018E
:1006500030916F01809170019091710128173907D5
:1006600031F48091C1008F7D8093C10014C0E0916E
:100670007001F0917101E25DFE4F20818091700167
:100680009091710101968F739927909371018093D6
:1006900070012093C600FF91EF919F918F913F9140
:1006A0002F910F900FBE0F901F9018951F920F92D1
:1006B0000FB60F9211242F934F935F938F939F93B5
:1006C000EF93FF938091C00082FD1CC02091C60073
:1006D0008091B2019091B3014091B4015091B50164
:1006E00001968F7399274817590771F0E091B2016D
:1006F000F091B301EE58FE4F20839093B3018093A5
:10070000B20102C08091C600FF91EF919F918F913D
:100710005F914F912F910F900FBE0F901F901895E2
:100720001F920F920FB60F9211242F933F938F9326
:100730009F93AF93BF938091250190912601A09143
:100740002701B09128013091200123E0230F2D379C
:1007500020F40196A11DB11D05C026E8230F0296C5
:10076000A11DB11D209320018093250190932601A6
:10077000A0932701B093280180912101909122013B
:10078000A0912301B09124010196A11DB11D809378
:10079000210190932201A0932301B0932401BF91E2
:1007A000AF919F918F913F912F910F900FBE0F901E
:1007B0001F9018951092B9011092B80188EE93E03D
:1007C000A0E0B0E08093BA019093BB01A093BC017C
:1007D000B093BD018CE091E09093B7018093B60196
:1007E00082E791E09093C3018093C2018EE291E091
:1007F0009093C5018093C40185EC90E09093C7016C
:100800008093C60184EC90E09093C9018093C80165
:1008100080EC90E09093CB018093CA0181EC90E052
:100820009093CD018093CC0182EC90E09093CF0126
:100830008093CE0186EC90E09093D1018093D0011B
:1008400084E08093D20183E08093D30187E080939A
:10085000D40185E08093D50181E08093D601809119
:10086000FC018C30A0F491E0980F9093FC018093F0
:10087000FD0190E0FC01EE0FFF1F8E0F9F1FFC019A
:10088000E852FE4F88EB9BE09283818308958FEFBF
:100890008093FD010895CF93DF93CDB7DEB76997BD
:1008A0000FB6F894DEBF0FBECDBF789484B58260DA
:1008B00084BD84B5816084BD85B5826085BD85B504
:1008C000816085BD80916E00816080936E00109282
:1008D00081008091810082608093810080918100FD
:1008E000816080938100809180008160809380008E
:1008F0008091B10084608093B1008091B0008160EC
:100900008093B00080917A00846080937A00809117
:100910007A00826080937A0080917A00816080936F
:100920007A0080917A00806880937A001092C100EA
:10093000E091CA01F091CB0181E090E09C01009030
:10094000D60102C0220F331F0A94E2F72083E09100
:10095000C601F091C7011082E091C801F091C90170
:100960002FEC20831092D701E091CC01F091CD01C2
:1009700040819C010090D20102C0220F331F0A94D3
:10098000E2F7242B2083E091CC01F091CD0140814E
:100990009C010090D30102C0220F331F0A94E2F79A
:1009A000242B2083E091CC01F091CD0140819C016A
:1009B0000090D40102C0220F331F0A94E2F7242BC7
:1009C0002083E091CC01F091CD0120810090D501F0
:1009D00002C0880F991F0A94E2F7809582238083D2
:1009E00061E082E00E949A0161E082E00E949A0147
:1009F00060E08EE00E949A0161E08DE00E949A0121
:100A00008091FD018C3008F051C061E089E00E94C6
:100A10009A018091FD01E82FF0E09F01220F331F22
:100A2000E20FF31FE852FE4F9081907C9960908313
:100A30001092FE011092FF016CE00E94A3082CE0CE
:100A4000829FB001112440E050E09B01240F351F2C
:100A5000F901EE0FFF1F2E0F3F1FF901E852FE4F65
:100A6000908196FD16C04F5F5F4F4C30510569F77E
:100A700081110FC01092800082E08093810010925B
:100A8000850010928400B19A80916F0082608093FB
:100A90006F00E091FD01F0E0CF01880F991FE80F92
:100AA000F91FE852FE4F80818064808360E4B62E97
:100AB0008E010F5F1F4F78E8E72EF12C2FB7F894C7
:100AC0008091250190912601A0912701B0912801E4
:100AD0002FBF4091290150912A0160912B01709103
:100AE0002C013C014D01641A750A860A970A28EE0A
:100AF000621623E0720681049104B0F0809329010C
:100B000090932A01A0932B01B0932C0161E08DE01A
:100B10000E944D0165E070E080E090E00E94FB01E2
:100B200060E08DE00E944D01B0927C0080917A00DF
:100B3000806480937A0080917A0086FDFCCFC0901B
:100B4000780080917900D12CD82A80910001909171
:100B50000101C816D90624F4D0920101C092000107
:100B60001C8A1B8A1E8A1D8A188E1F8A198E4AE0CB
:100B7000B801C6010E947706F80101900020E9F74C
:100B800031974F01801A910AB401CE0143960E9419
:100B90003302811105C0CE0143960E94210207C095
:100BA000988E8F8AB8018B899C890E949C081A8232
:100BB00019821C821B821E821D821F8267E070E0E8
:100BC000C8010E943302811104C0C8010E942102A1
:100BD0000AC087E090E09E838D8368E171E089819F
:100BE0009A810E949C088F89988D6B887C886114FB
:100BF000710409F475C00097B1F08D809E80880E55
:100C0000991EB401C8010E943302882309F468C008
:100C100029813A818D819E81B301820F931F0E94A9
:100C20009C089E828D82812C912C8D819E818816BC
:100C3000990690F489819A81009729F0FC01E80DCA
:100C4000F91D608101C060E086EB91E00E948800A0
:100C50008FEF881A980AE9CF6DE086EB91E00E9449
:100C600088006AE086EB91E00E94880089819A8181
:100C70000E9444078B899C890E9444079EECC916F8
:100C800092E0D90624F58091FD018C30E0F490913A
:100C9000FE019701291B310997FD339593E0220F3F
:100CA000331F9A95E1F7245031094FB7F89490E03B
:100CB000FC01EE0FFF1F8E0F9F1FFC01E852FE4F3D
:100CC000328321834FBF61E082E00E944D0164E6E0
:100CD00070E080E090E00E94FB010E942101EECED6
:100CE000C8010E9421029FCFF8940C94EC08BB2706
:100CF0004A3031F4992322F4BDE2909581959F4FBB
:100D00000C948306BB27FB015527AA27880F991F40
:100D1000AA1FA41710F0A41B83955051B9F7A05D2A
:100D2000AA3308F0A95DA193009779F7B111B193A7
:100D30001192CB010C949C06DC01FC01672F719190
:100D40007723E1F7329704C07C916D9370836291B1
:100D5000AE17BF07C8F308950F931F93CF93DF9388
:100D60008230910510F482E090E0E0910202F0916F
:100D7000030220E030E0A0E0B0E0309719F14081BC
:100D800051810281138148175907C8F084179507CC
:100D900069F4109731F012960C93129713961C93E6
:100DA00027C0009302021093030222C021153105CF
:100DB00019F04217530718F49A01BD01EF01DF0142
:100DC000F801DBCF21153105F9F0281B390B243050
:100DD000310580F48A819B816115710521F0FB0149
:100DE0009383828304C09093030280930202FE01E6
:100DF000329644C0FE01E20FF31F8193919322507B
:100E00003109398328833AC02091000230910102D0
:100E1000232B41F42091040130910501309301020C
:100E20002093000220910201309103012115310528
:100E300041F42DB73EB74091060150910701241BA4
:100E4000350BE0910002F0910102E217F307A0F4E4
:100E50002E1B3F0B2817390778F0AC014E5F5F4F10
:100E60002417350748F04E0F5F1F5093010240933F
:100E700000028193919302C0E0E0F0E0CF01DF91A6
:100E8000CF911F910F910895CF93DF93009709F4AD
:100E900081C0FC01329713821282A0910202B091AC
:100EA0000302109781F420813181820F931F2091DA
:100EB0000002309101022817390751F5F093010221
:100EC000E093000267C0ED0120E030E0CE17DF07BD
:100ED00040F44A815B819E0141155105F1F0EA0120
:100EE000F5CFD383C28340815181840F951FC817EA
:100EF000D90759F488819981840F951F02969183AF
:100F000080838A819B81938382832115310529F413
:100F1000F0930302E09302023DC0E901FB83EA8300
:100F200049915991C40FD51FEC17FD0761F48081D9
:100F30009181840F951F0296E901998388838281AC
:100F400093819B838A83E0E0F0E012968D919C91DF
:100F50001397009719F0FD01DC01F7CF8D919C915B
:100F600011979D012E5F3F4F820F931F209100022A
:100F7000309101022817390769F4309729F410924B
:100F800003021092020202C013821282B093010285
:100F9000A0930002DF91CF910895A0E0B0E0E3EDCF
:100FA000F7E00C94B308EC01009721F4CB010E9408
:100FB000AC06B4C0FC01E60FF71F9C0122503109BA
:100FC000E217F30708F4A8C0D9010D911C911197FD
:100FD00006171707B0F00530110508F49BC0C801CB
:100FE00004978617970708F495C002501109061B4D
:100FF000170B019311936D937C93CF010E944407CB
:1010000089C05B01A01AB10A4C01800E911EA0910B
:101010000202B0910302612C712CE12CF12C10978B
:1010200009F446C08D919C911197A815B905B1F5A9
:101030006C0142E0C40ED11CCA14DB0478F14C01EF
:101040008A189B08640142E0C40ED11C1296BC9021
:1010500012971396AC91B5E0CB16D10440F0B28252
:10106000A38391828082D9016D937C9309C00E5F26
:101070001F4F800F911FF90191838083EB2DFA2F71
:10108000E114F10431F0D7011396FC93EE9312971B
:1010900041C0F0930302E09302023CC06816790657
:1010A00008F43C017D0112960D90BC91A02DB7CFA4
:1010B000809100029091010288169906E1F466166B
:1010C0007706C8F48091020190910301009741F4E2
:1010D0008DB79EB74091060150910701841B950B77
:1010E000E817F907C8F4F0930102E0930002F90150
:1010F000718360830FC0CB010E94AC067C01009716
:1011000059F0A801BE010E949308CE010E94440735
:10111000C70104C0CE0102C080E090E0CDB7DEB7C9
:10112000EEE00C94CF08FB01DC0102C001900D92AF
:1011300041505040D8F70895FB01DC0101900D9219
:101140000020E1F70895991B79E004C0991F9617D4
:1011500008F0961B881F7A95C9F7809508952F92FD
:101160003F924F925F926F927F928F929F92AF9237
:10117000BF92CF92DF92EF92FF920F931F93CF9384
:10118000DF93CDB7DEB7CA1BDB0B0FB6F894DEBF1B
:101190000FBECDBF09942A88398848885F846E8441
:1011A0007D848C849B84AA84B984C884DF80EE808B
:1011B000FD800C811B81AA81B981CE0FD11D0FB694
:1011C000F894DEBF0FBECDBFED010895EE0FFF1FF7
:0C11D0000590F491E02D0994F894FFCFF5
:1011DC008813000004022000000000008800250194
:1011EC001101D500F500CA0056616C6575722000BE
:00000001FF
